:060000000A128A112C29EE
:10000800F100030EF2000B1817200B191020720EC6
:100018008300F10E710E090003138312D83081009A
:1000280026200B11080003138312861B1E20861F2F
:100038002020080074140800741C0800F70AF40152
:10004800850108007708031934287708013C03194B
:100058003B287708023C03190800F70185010800CE
:100068007008FF3AF000700885000B110800760848
:10007800031D4328F50B4728761447280800F50F79
:0C00880047287610080075088500080065
:100200008A010A140F3982076434B134CB34D834EC
:10021000E034E534E934EC34EE34F034E334E534FE
:10022000E734E934EB34EC34ED34EE34EF34E034DD
:10023000E234E334E434E534E734E734E834E934F1
:10024000EA34D634D734D834DA34DB34DC34DD3431
:10025000DE34DF34DF34E03403178316880189018C
:1002600003138316850103138316061786170313DA
:10027000831285018601031383161617961703133D
:10028000831206080B1003138316811303138316BE
:1002900015179517031383160F178F160F160F14C4
:1002A00003138316063081008112031383128B1708
:1002B0008B160B118B150B1003138312D830810092
:0402C0000B11612994
:04400E00C423FF3F89
:00000001FF
